:100000000000012071110000E1110000E311000067
:10001000E5110000E7110000E911000000000000F8
:10002000000000000000000000000000EB110000D4
:10003000ED11000000000000EF110000F1110000C0
:10004000F3110000F3110000F3110000F3110000A0
:10005000F3110000F3110000F3110000F311000090
:10006000F3110000F3110000F3110000F311000080
:10007000F3110000F3110000F3110000F311000070
:10008000F3110000F3110000F3110000F311000060
:10009000F3110000F3110000F3110000F311000050
:1000A000F3110000F3110000F3110000F311000040
:1000B000F3110000F3110000000000000000000038
:1000C000F3110000F3110000F3110000F311000020
:1000D000F3110000F3110000F31100000000000014
:1000E0000000000000000000000000000000000010
:1000F0000000000000000000000000000000000000
:1001000000000000000000000000000000000000EF
:1001100000000000000000000000000000000000DF
:1001200000000000000000000000000000000000CF
:1001300000000000000000000000000000000000BF
:1001400000000000000000000000000000000000AF
:10015000000000000000000000000000000000009F
:10016000000000000000000000000000000000008F
:10017000000000000000000000000000000000007F
:10018000000000000000000000000000000000006F
:10019000000000000000000000000000000000005F
:1001A000000000000000000000000000000000004F
:1001B000000000000000000000000000000000003F
:1001C000000000000000000000000000000000002F
:1001D000000000000000000000000000000000001F
:1001E000000000000000000000000000000000000F
:1001F00000000000000000000000000000000000FF
:100200004B6F6D20696E6E00546865206176657273
:1002100061676520677261646520696E2054544B84
:1002200025642077617320696E20256420776173CF
:100230003A2025630A0D0000100000202020202015
:10024000202020202020202020202020303030306E
:100250003030303030303030303030303031323398
:1002600034353637383941424344454600000000B2
:10027000303132333435363738396162636465661C
:1002800000000000286E756C6C29000020202020E2
:10029000202020202020202020202020303030301E
:1002A000303030303030303030303030494E460031
:1002B000696E66004E414E006E616E0030000000B7
:1002C0004E614E00496E66696E69747900000000E7
:1002D00042616C6C6F63207375636365656465640C
:1002E000000000002E2E2F2E2E2F2E2E2F2E2E2FE2
:1002F0002E2E2F2E2E2F2E2E2F2E2E2F6E65776C1C
:1003000069622F6C6962632F7374646C69622F6415
:10031000746F612E6300000043000000504F53498A
:10032000580000002E000000050000001900000029
:100330007D00000000000000000000000000F03F11
:1003400000000000000024400000000000005940B0
:100350000000000000408F40000000000088C34003
:1003600000000000006AF8400000000080842E4178
:1003700000000000D01263410000000084D79741C4
:100380000000000065CDCD41000000205FA00242CA
:10039000000000E876483742000000A2941A6D423F
:1003A000000040E59C30A2420000901EC4BCD64232
:1003B00000003426F56B0C430080E03779C34143DD
:1003C00000A0D8855734764300C84E676DC1AB4353
:1003D000003D9160E458E143408CB5781DAF154471
:1003E00050EFE2D6E41A4B4492D54D06CFF080444C
:1003F000F64AE1C7022DB544B49DD9794378EA4461
:10040000BC89D897B2D29C3C33A7A8D523F64939EA
:100410003DA7F444FD0FA5329D978CCF08BA5B250C
:10042000436FAC642806C80A0080E03779C34143B3
:10043000176E05B5B5B89346F5F93FE9034F384D4A
:10044000321D30F94877825A3CBF737FDD4F1575F6
:100450002E2E2F2E2E2F2E2E2F2E2E2F2E2E2F2EB7
:100460002E2F2E2E2F2E2E2F6E65776C69622F6CFD
:100470006962632F7374646C69622F6D7072656357
:100480002E6300002C2066756E6374696F6E3A20CF
:1004900000000000617373657274696F6E2022251D
:1004A0007322206661696C65643A2066696C652018
:1004B000222573222C206C696E6520256425732506
:1004C000730A00000020202020202020202028283F
:1004D0002828282020202020202020202020202004
:1004E0002020202020881010101010101010101044
:1004F0001010101010040404040404040404041074
:100500001010101010104141414141410101010101
:1005100001010101010101010101010101010101CB
:1005200010101010101042424242424202020202D7
:10053000020202020202020202020202020202029B
:10054000101010102000000000000000000000004B
:10055000000000000000000000000000000000009B
:10056000000000000000000000000000000000008B
:10057000000000000000000000000000000000007B
:10058000000000000000000000000000000000006B
:10059000000000000000000000000000000000005B
:1005A000000000000000000000000000000000004B
:1005B000000000000000000000000000000000003B
:0505C000000000000036
:0805C80090000000010000009A
:1005D0000348044B834202D0034B03B118477047D2
:1005E000B4090020B40900200000000005480649B5
:1005F0000B1AD90F01EBA301491002D0034B03B131
:1006000018477047B4090020B4090020000000001A
:1006100010B5064C237843B9FFF7DAFF044B13B14A
:100620000448AFF300800123237010BDB4090020FB
:10063000000000006880000008B5044B1BB10449AD
:100640000448AFF30080BDE80840CFE70000000099
:10065000B809002068800000A3F5803A704700BF09
:10066000154B002B08BF114B9D46FFF7F5FF0021EE
:100670008B460F461148124A121A00F033FE0C4BFB
:10068000002B00D098470B4B002B00D09847002040
:10069000002104000D000B4800F0ACFD00F0DAFD75
:1006A0002000290000F040F800F0AAFD000008003A
:1006B000000000000000000000000120B40900203C
:1006C0000C0A00202112000080B400AF4FF0A043BC
:1006D0000C22C3F834274FF0A0430C22C3F838276C
:1006E00000BFBD4680BC704780B586B000AFF860E3
:1006F000B9607A60BB687B6100233B610AE07B697B
:100700001B78184600F0B8F87B6901337B613B69C0
:1007100001333B613B697A689A42F0D87B6818469E
:100720001837BD4680BD000080B586B000AF1123EC
:100730007B6110E001227B699A404FF0A043C3F82F
:10074000182501227B699A404FF0A043C3F80C257D
:100750007B6901337B617B69142BEBDDFFF7B4FF11
:1007600000F058F800233B614FF0A043D3F8103558
:1007700003F40053FB60FB68002B08D14FF0A0434B
:100780004FF40032C3F80425412000F075F84FF013
:10079000A043D3F8103503F48043BB60BB68002B43
:1007A00008D14FF0A0434FF48022C3F80425422023
:1007B00000F062F800F080F80346FB71FB79002B33
:1007C00008D04FF0A0434FF4F012C3F804250F48AF
:1007D00000F0E8FD4FF0A043D3F8103503F40043D8
:1007E0003B603B68002B07D0422340F2E67241F2A7
:1007F0008B01074800F052FD42F210733B613B69E8
:10080000013B3B613B69002BF9D1ADE700020000E1
:100810000802000080B400AF4FF0A0430022C3F8EC
:1008200018274FF0A0430122C3F82027104B0622BF
:10083000C3F80C250E4B0822C3F814250C4B4FF0BF
:10084000FF32C3F808250A4B4FF0FF32C3F81025DA
:10085000074B084AC3F82425054B0422C3F800259A
:10086000034B01221A6000BFBD4680BC704700BF29
:10087000002000400050270080B483B000AF034642
:10088000FB710C4B01229A600A4AFB79C2F81C35B5
:1008900000BF084BD3F81C31002BFAD0054B0022C7
:1008A000C3F81C21034B0122DA6000BF0C37BD46A0
:1008B00080BC70470020004080B483B000AF0C4B78
:1008C0000022C3F808210A4B01221A60084BD3F812
:1008D0000831002B04D0064BD3F81835FB7101E02A
:1008E0000023FB71FB7918460C37BD4680BC70476E
:1008F0000020004080B483B000AF1E4B1B68B3F1F2
:10090000FF3F0AD11C4B1B68DBB27B601B4B1B6893
:100910001B0903F00F033B6005E0164B1B687B606F
:10092000174B1B683B607B68062B1DD13B68033B64
:10093000042B17D801A252F823F000BF5109000080
:1009400055090000590900005D0900006109000017
:1009500001230AE0012308E0012306E0012304E06B
:10096000012302E0012300E0002318460C37BD46B6
:1009700080BC704730010010E00F00F0E80F00F07D
:100980003401001080B483B000AF184B1B68DBB299
:100990007B60174B1B681B0903F00F033B607B68F0
:1009A000062B1DD13B68033B042B17D801A252F83C
:1009B00023F000BFC9090000CD090000D1090000E3
:1009C000D5090000D909000001230AE0002308E04E
:1009D000002306E0002304E0002302E0002300E0FF
:1009E000002318460C37BD4680BC7047E00F00F06E
:1009F000E80F00F080B483B000AF1E4B1B68B3F16A
:100A0000FF3F0AD11C4B1B68DBB27B601B4B1B6892
:100A10001B0903F00F033B6005E0164B1B687B606E
:100A2000174B1B683B607B68062B1DD13B68033B63
:100A3000042B17D801A252F823F000BF510A00007E
:100A4000550A0000590A00005D0A0000610A000012
:100A500001230AE0012308E0012306E0012304E06A
:100A6000012302E0012300E0002318460C37BD46B5
:100A700080BC704730010010E00F00F0E80F00F07C
:100A80003401001080B483B000AF184B1B68DBB298
:100A90007B60174B1B681B0903F00F033B607B68EF
:100AA000062B1DD13B68033B042B17D801A252F83B
:100AB00023F000BFC90A0000CD0A0000D10A0000DF
:100AC000D50A0000D90A000001230AE0002308E04B
:100AD000002306E0002304E0002302E0002300E0FE
:100AE000002318460C37BD4680BC7047E00F00F06D
:100AF000E80F00F080B483B000AF1E4B1B68B3F169
:100B0000FF3F0AD11C4B1B68DBB27B601B4B1B6891
:100B10001B0903F00F033B6005E0164B1B687B606D
:100B2000174B1B683B607B68062B1DD13B68033B62
:100B3000042B17D801A252F823F000BF510B00007C
:100B4000550B0000590B00005D0B0000610B00000D
:100B500001230AE0012308E0012306E0012304E069
:100B6000012302E0012300E0002318460C37BD46B4
:100B700080BC704730010010E00F00F0E80F00F07B
:100B80003401001080B483B000AF184B1B68DBB297
:100B90007B60174B1B681B0903F00F033B607B68EE
:100BA000062B1DD13B68033B042B17D801A252F83A
:100BB00023F000BFC90B0000CD0B0000D10B0000DB
:100BC000D50B0000D90B000001230AE0002308E048
:100BD000002306E0002304E0002302E0002300E0FD
:100BE000002318460C37BD4680BC7047E00F00F06C
:100BF000E80F00F080B483B000AF184B1B68DBB285
:100C00007B60174B1B681B0903F00F033B607B687D
:100C1000062B1DD13B68033B042B17D801A252F8C9
:100C200023F000BF390C00003D0C0000410C000017
:100C3000450C0000490C000001230AE0002308E0F5
:100C4000002306E0002304E0002302E0002300E08C
:100C5000002318460C37BD4680BC7047E00F00F0FB
:100C6000E80F00F080B483B000AF1E4B1B68B3F1F7
:100C7000FF3F0AD11C4B1B68DBB27B601B4B1B6820
:100C80001B0903F00F033B6005E0164B1B687B60FC
:100C9000174B1B683B607B68062B1DD13B68033BF1
:100CA000042B17D801A252F823F000BFC10C00009A
:100CB000C50C0000C90C0000CD0C0000D10C0000D8
:100CC00000230AE0002308E0012306E0012304E0FA
:100CD000012302E0012300E0002318460C37BD4643
:100CE00080BC704730010010E00F00F0E80F00F00A
:100CF0003401001080B483B000AF1E4B1B68B3F109
:100D0000FF3F0AD11C4B1B68DBB27B601B4B1B688F
:100D10001B0903F00F033B6005E0164B1B687B606B
:100D2000174B1B683B607B68062B1DD13B68033B60
:100D3000042B17D801A252F823F000BF510D000078
:100D4000550D0000590D00005D0D0000610D000003
:100D500001230AE0012308E0012306E0012304E067
:100D6000012302E0012300E0002318460C37BD46B2
:100D700080BC704730010010E00F00F0E80F00F079
:100D80003401001080B483B000AF1E4B1B68B3F178
:100D9000FF3F0AD11C4B1B68DBB27B601B4B1B68FF
:100DA0001B0903F00F033B6005E0164B1B687B60DB
:100DB000174B1B683B607B68062B1DD13B68033BD0
:100DC000042B17D801A252F823F000BFE10D000058
:100DD000E50D0000E90D0000ED0D0000F10D000033
:100DE00001230AE0012308E0012306E0012304E0D7
:100DF000012302E0012300E0002318460C37BD4622
:100E000080BC704730010010E00F00F0E80F00F0E8
:100E10003401001080B483B000AF164B1B687B60B8
:100E2000154B1B683B607B68062B1DD13B68033B61
:100E3000042B17D801A252F823F000BF510E000076
:100E4000550E0000590E00005D0E0000610E0000FE
:100E500000230AE0002308E0002306E0012304E069
:100E6000012302E0012300E0002318460C37BD46B1
:100E700080BC7047300100103401001080B483B092
:100E800000AF164B1B687B60154B1B683B607B6893
:100E9000062B1DD13B68033B042B17D801A252F847
:100EA00023F000BFB90E0000BD0E0000C10E00000F
:100EB000C50E0000C90E000000230AE0002308E070
:100EC000002306E0002304E0012302E0012300E008
:100ED000002318460C37BD4680BC70473001001017
:100EE0003401001080B500AFFFF7C8FF0346002BA8
:100EF00007D04FF010234FF08042D3F80832C2F8E9
:100F0000583500BF80BD000080B400AF034B044AD9
:100F10001A6000BFBD4680BC704700BF00000020C3
:100F20000090D00380B500AFFFF7E4FC0346002B30
:100F300006D07F4B1B681B0A7E4A03F01F03136019
:100F4000FFF720FD0346002B02D07B4B7B4A1A6043
:100F5000FFF750FD0346002B06D0794B1B685B0B57
:100F6000784A03F007031360FFF78CFD0346002B5C
:100F700005D0754BDB68744A23F08073D360FFF7AC
:100F8000B9FD0346002B0ED04FF080430022C3F87A
:100F90000C214FF080430022C3F810214FF0804312
:100FA0000022C3F83825FFF7EDFD0346002B02D0E1
:100FB000664B03221A60FFF71DFE0346002B0BD081
:100FC000634B05221A60634B01221A60624B0022B8
:100FD0001A60624B3F221A60FFF744FE0346002B63
:100FE00076D04FF080535E4AD3F80434C2F82035EF
:100FF0004FF080535A4AD3F80834C2F824354FF0E2
:101000008053574AD3F80C34C2F828354FF0805338
:10101000534AD3F81034C2F82C354FF08053504A5D
:10102000D3F81434C2F830354FF080534C4AD3F81B
:101030001834C2F834354FF08053494AD3F81C3481
:10104000C2F840354FF08053454AD3F82034C2F8F7
:1010500044354FF08053424AD3F82434C2F848351F
:101060004FF080533E4AD3F82834C2F84C354FF045
:1010700080533B4AD3F82C34C2F850354FF080539C
:10108000374AD3F83034C2F854354FF08053344ADD
:10109000D3F83434C2F860354FF08053304AD3F877
:1010A0003834C2F864354FF080532D4AD3F83C34BD
:1010B000C2F868354FF08053294AD3F84034C2F85B
:1010C0006C354FF08053264AD3F84434C2F870355B
:1010D000FFF710FE0346002B05D0224B1B68224A67
:1010E00003F04F031360FFF74DFE0346002B0DD0B6
:1010F0004FF08043D3F8003403F00103002B05D0F8
:101100004FF080436FF00102C3F80024FFF782FE26
:101110000346002B05D0154B1B68144A43F480632B
:101120001360FFF7DFFEFFF7EFFE00BF80BD00BFDB
:10113000240300104035014074C007400DF0ADBAE3
:10114000440200103C050040F0ED00E0A005004026
:101150001056004088560040185600401456004073
:1011600000C0004058020010E40E00403C17004050
:101170000F49104A104B00F010F81049104A114B5B
:1011800000F00BF81049114A114B00F006F8114914
:10119000114A124B00F001F806E0521A03DD043A3E
:1011A00098588850FBDC7047FFF7BCFEFFF758FAF1
:1011B00000000020B4090020B4800000B409002021
:1011C000B4090020688A0000B4090020B409002096
:1011D000688A0000B4090020B4090020688A000071
:1011E000FEE7FEE7FEE7FEE7FEE7FEE7FEE7FEE7D7
:1011F000FEE7FEE7002301461A46184602F084BACD
:1012000008B50021044602F0B3FA044B1868C36B1A
:1012100003B19847204606F013FF00BF38020000D4
:1012200038B50A4C0A4D641BA4100AD004F180435F
:10123000013B05EB8305013C55F804399847002C28
:10124000F9D1BDE8384006F007BF00BF6880000054
:101250006480000070B50D4E0D4D761BB61006D0A3
:101260000024013455F8043B9847A642F9D1094EB1
:10127000094D761B06F0E6FEB61006D000240134B8
:1012800055F8043B9847A642F9D170BD5080000044
:101290005080000058800000508000000FB400B55E
:1012A000074983B004AB086853F8042B81680193A5
:1012B00000F0D0F803B05DF804EB04B0704700BF55
:1012C000080000200EB400B582B003AB816853F86B
:1012D000042B019300F0BEF802B05DF804EB03B0FC
:1012E000704700BFF0B4860746D0541E002A3CD099
:1012F000CAB2034602E014F1FF3436D303F8012BDF
:101300009D07F8D1032C29D9CDB245EA05250F2C2C
:1013100045EA054533D9A4F11006360903F1200743
:1013200007EB061703F1100242E9045542E90255A2
:101330001032BA42F8D1721C14F00C0F03EB0212F7
:1013400004F00F0613D0331F23F0030304331344B8
:1013500042F8045B9342FBD106F003042CB1C9B2FE
:101360001C4403F8011B9C42FBD1F0BC704734467F
:101370001346002CF3D1F8E714460346C2E71A4699
:101380002646E0E70EB400B582B003AB816853F89F
:10139000042B019300F098FE02B05DF804EB03B05B
:1013A000704700BF0FB400B5074983B004AB0868AD
:1013B00053F8042B8168019300F086FE03B05DF8BA
:1013C00004EB04B0704700BF080000202DE9F84F7F
:1013D0004B6E9C0493462DD59368126843B30E461A
:1013E000074602F1080959E9025A5FEA9A0815D03E
:1013F000043D002401E0A0450ED0324655F8041FFC
:10140000384603F033FC431C04F10104F3D10023FC
:10141000CBE90133BDE8F88FDBF808302AF0030A86
:10142000A3EB0A03CBF8083009F10809002BDAD145
:101430000020ECE703F096FD0023CBE90133BDE883
:10144000F88F00BF936803B1C0E710B4184653602B
:1014500010BC70472DE9F04FABB01C468A46904651
:10146000CDE9043018B1836B002B00F00083BAF98A
:101470000C108AB290040AD4DAF8643041F40052B5
:1014800023F40053AAF80C20CAF8643092B2110772
:1014900040F1CA80DAF81030002B00F0C58002F06D
:1014A0001A020A2A00F0CE8000230893CDE90E33F9
:1014B00002931AAB0D939B4698F80030002B00F076
:1014C000DF80252B00F01C85454603E0252B00F02E
:1014D000C68025466B786C1C002BF7D1B4EB080650
:1014E00000F0CE80DDE90E3201333244072BCBF819
:1014F0000080CBF80460CDE90E3200F3B5800BF12B
:10150000080B029A6B7832440292002B00F0B880EC
:101510004FF0000300218DF82F30637803910846C7
:101520000F4604F101084FF0FF3908F10108A3F15B
:101530002002582A00F29E82DFE812F0F9009C0295
:101540009C02F4009C029C029C029C029C029C0255
:10155000E900E4009C02DF00C6009C02C100B2006A
:10156000B200B200B200B200B200B200B200B200EB
:101570009C029C029C029C029C029C029C029C027B
:101580009C029C0228029C029C029C029C029C02DF
:101590009C029C029C029C029C0267009C029C0292
:1015A0009C029C029C0259009C029C0213029C0219
:1015B0009C029C029C029C029C029C029C029C023B
:1015C0009C02840157019C029C029C02520157011B
:1015D0009C029C0245019C026E0269003F02400190
:1015E0009C0220019C025B009C029C02010147F0CE
:1015F0001007BA06049B40F12782073323F0070344
:10160000F3E8024504930123E5E147F0100717F0E2
:10161000200300F02282049B073323F00703F3E842
:10162000024504930023D6E15146059802F004F8E0
:10163000002840F0F484BAF80C2002F01A020A2ABA
:101640007FF432AFBAF90E30002BFFF62DAF2346F0
:1016500042465146059800F001FD02901CE0B4EBB3
:1016600008063FF455AF3DE7002A00F00F840DAAAD
:1016700051460598FFF7AAFE48B90DF1680B40E7FF
:101680000F9B23B105980DAA5146FFF79FFEBAF8AC
:101690000C305B0600F1C38402982BB0BDE8F08FDC
:1016A000A3F13002002418F8013B04EB840402EBA0
:1016B0004404A3F13002092AF5D9039437E747F02F
:1016C000800798F8003030E7444614F8013B2A2B95
:1016D00000F0AA84A3F13002092AA0464FF00009C5
:1016E0003FF625AF18F8013B09EB890902EB4909E0
:1016F000A3F13002092AF5D919E798F8003047F02C
:10170000040712E798F8003001212B200DE7049A16
:1017100098F8003052F8044B0394002CC0F2158462
:10172000049202E747F0010798F80030FDE698F8C8
:10173000003000287FF4F9AE01212020F5E60029D1
:1017400040F05B84BE4A0892B806049A40F11281C8
:10175000073222F00702F2E802450492FE0740F148
:10176000998154EA050200F0958130228DF83130DC
:1017700047F002078DF8302002232CE1049C54F836
:10178000046B4FF000038DF82F30002E00F007841B
:10179000B9F1FF3F00F0DE834A460021304604F0F5
:1017A00037F9002800F01984831B01939DF82F302E
:1017B0000494009706934FF00009B0E147F020072A
:1017C00098F80030B1E698F800306C2B03BF98F819
:1017D000013047F0200708F1010847F01007A4E6A0
:1017E00047F0400798F800309FE6002940F0018458
:1017F000BA06049B40F1D380073323F00703194650
:10180000F1E80223049114461D46002A73F10003F7
:10181000C0F249839DF82F300693B9F1FF3F00F0E5
:10182000148327F08003009354EA050340F00C83EF
:10183000B9F1000F40F0CF834FF00009CDF80490CC
:101840001AAE6CE1049B012553F8042B8DF840205F
:101850004FF000018DF82F100493019510AE009702
:101860004FF00009009BDDE90E2C13F002030693F4
:10187000009B18BF0235501C13F0840301460793E8
:1018800004D1039B5C1B002C00F325829DF82F40A4
:101890000BF108007CB10CF1010C0DF12F040122B9
:1018A0000729CDE90E1CCBE9004200F3F4810A467A
:1018B000834601310830069BE3B10CF1020C0CAAFF
:1018C00002230729CDE90E1CCBE9002340F3FD815B
:1018D000BCF1000F00F0FD820DAA51460598FFF7FC
:1018E00075FD00287FF4D3AEDDE90E2C1CA8511C39
:1018F0000DF1680B079B802B00F01C81019BA9EB6D
:101900000307002F00F37381019A0E91134663447D
:1019100007290F93CBE900620CDD002B00F0248235
:101920000DAA51460598FFF751FD00287FF4AFAE90
:101930000F9B1AA8009A520704D5039A541B002C37
:1019400000F31B82DDE90221A942ACBF52185219F3
:101950000292002B40F0918100230E930DF1680B51
:10196000AAE5002940F05283364A0892B806049A44
:101970003FF5EEAE52F8044B0492F90600F19C825A
:101980007A0640F19982A4B20025E7E6002940F0EA
:101990002D8347F01007BA06049B3FF52DAF53F88F
:1019A000044B0493FE0600F176827D0640F17382BB
:1019B00024B2E51722462B4627E7049B53F8044B35
:1019C000049347F630021E4B0893ADF8302047F0E1
:1019D0000207002502234FF000028DF82F2000227D
:1019E0000692B9F1FF3F58D027F08002009254EAE6
:1019F000050251D1B9F1000F40F00A82002B7FF4AB
:101A00001BAF17F00103019300F07D8230238DF8A6
:101A100067300DF1670682E0002940F0F282049AF7
:101A2000BC0652F8043B049200F18282F80600F1F1
:101A3000AA82790640F1A782029A1A803CE500BF8B
:101A4000700200005C02000053F8044B0493FE0691
:101A500040F1688200250123BDE7049A52F8044B47
:101A6000049217F0100200F056820025B3E703F04D
:101A700089F8FCE4002940F0AB82002B3FF400AE73
:101A800001258DF840304FF000038DF82F3001957F
:101A900010AEE4E602239EE7009F012B00F0D58103
:101AA000022B00F0BC811AA900E03146E20842EAAC
:101AB0004572E80804F0070305461446303354EA3B
:101AC000050201F8013C01F1FF36EED1F80722D5FD
:101AD000302B20D03023023906F8013C1AAB5B1AB8
:101AE000009701930E461AE01AAE01E004460D4637
:101AF0000A2200232046294606F0E2F8303206F892
:101B0000012D00230A222046294606F0D9F8002D8F
:101B100008BF0A2CEAD21AAB9B1B00970193019BCA
:101B20004B45B8BF4B461D46069B002B3FF49AAE73
:101B3000013597E6039B5F1B002F7FF7DFAE102F69
:101B4000BF4C40F369826346DC46AB462546059CA4
:101B500006E0901C0CF1080C0A46103F102F1EDD09
:101B6000511C1033102007290F93CCF80050CCF8EB
:101B700004000E91EDDD0DAA51462046002B00F029
:101B80008580FFF723FC00287FF481ADDDE90E237B
:101B9000103F102F02F101000DF1680CE0DC2C4623
:101BA0005D46E3469C460BF10803BC440728CDF88C
:101BB0003CC0CBE900470E9040F3A781BCF1000F79
:101BC00000F0F7810DAA51460598FFF7FFFB0028AA
:101BD0007FF45DAD019BDDE90E2CA9EB0307002F1F
:101BE00002F101011CA80DF1680B7FF78DAE102FDB
:101BF000934C40F3DC8163464FF01009DC46AB4662
:101C00002546059C06E0911C0CF1080C0246103F8D
:101C1000102F19DD501C103307280F93CCE9005901
:101C20000E90F0DD0DAA514620460BB3FFF7CEFB18
:101C300000287FF42CADDDE90E23103F102F02F1B8
:101C400001010DF1680CE5DC2C465D46E3469C463F
:101C50000BF10803BC440729CDF83CC0CBE9004791
:101C60000E9100F30081013103F108009B464BE621
:101C700001211A460DF1680CC9E70DAA51460598D5
:101C8000FFF7A4FB00283FF467AE00E501201A46E9
:101C90000DF1680C61E7BCF1000F00F00F810DAA97
:101CA00051460598FFF792FB00287FF4F0ACDDE980
:101CB0000E2C1CA8511C0DF1680BFCE502230CAA8C
:101CC000CDE91A239C461CA8012183460A46511CD3
:101CD0000BF108000EE6102C5A4F40F3958109963F
:101CE00059461023C3466646A846059D07E002F103
:101CF000020E08310246103C102C1ADD501C103622
:101D000007280F96C1E900730E90F0DD0DAA514629
:101D1000284626B3FFF75AFB00287FF4B8ACDDE96C
:101D20000E26103C102C02F1010E1AA94FF01003E0
:101D3000E4DCB446099E4546D8468B46A444BEF131
:101D4000070FCDF83CC0CBE90074CDF838E000F3C4
:101D5000C6800BF1080B0EF10101724696E5324682
:101D60004FF0010E1AA9C6E7009A0E93510747D506
:101D7000039A541B002C43DD1AA8102C0E99314FE6
:101D800040F347811026DDF8149006E001F1020CC3
:101D900008301146103C102C18DD4A1C1033072A5D
:101DA0000F93C0E900760E92F0DD0DAA5146484629
:101DB0000BB3FFF70BFB00287FF469ACDDE90E13D2
:101DC000103C102C01F1010C1AA8E6DC2344BCF1F4
:101DD000070F0F93C0E90074CDF838C07FF7B2AD9C
:101DE00073B10DAA51460598FFF7F0FA00287FF469
:101DF0004EAC0F9BA6E54FF0010C19461AA8C9E797
:101E0000DDE90232AA42ACBF9B185B190293A3E53D
:101E1000012B00F0E080022B009F7FF444AE089875
:101E20001AAE230904F00F0143EA05732A091C4680
:101E30001546435C06F8013D54EA0503F1D16AE614
:101E40004C0200003C020000009F002D08BF0A2C3D
:101E5000BFF44AAE303401238DF8674000970193F8
:101E60000DF167065BE6BCF1000F00F090800DAA53
:101E700051460598FFF7AAFA00287FF408ACDDE97F
:101E80000E1C1CA801310DF1680B3DE50E920DF101
:101E9000680BFFF736BBE51722462B46002A73F185
:101EA0000003BFF6B7AC2D2364428DF82F300693A4
:101EB00065EB4505012394E500254FE4069B002BC7
:101EC0003DD002230CA9CDE91A139C460DF1700BED
:101ED000FDE61CA8012162460DF1680B0AE5BCF184
:101EE000000F43D00DAA51460598FFF76FFA00285E
:101EF0007FF4CDABDDE90E2C0DF1680B511CC5E470
:101F00004446FFF705BB1AAE09E6411C02469B4654
:101F100003F10800F2E417F040031CBF1346A4B21B
:101F2000002558E57D0648BFA4B20025012352E5EF
:101F3000029A1046D117C3E90001FFF7BDBA114656
:101F40001CA862460DF1680BD4E46442CDE903425B
:101F5000FFF7D5BB30460494009704F0F1FE9DF8DE
:101F60002F30019006934FF00009D8E59DF82F20FF
:101F70002ABB069B002B7FF4A1AE62461CA8012160
:101F80000DF1680BBAE4029A1A60FFF795BA019B4B
:101F90001B9301220F931A960E921CA8CAE44D4679
:101FA000062D28BF062501950494254E57E40346C7
:101FB00050E61CA8012162460DF1680B9EE4012247
:101FC0000DF12F001A9094461B9211461CA86EE446
:101FD0008DF82F0051E5009F3CE79DF82F30CDF89C
:101FE0000490069304940097814698E58DF82F009D
:101FF000CFE48DF82F00FFF7FBBB8DF82F00FFF724
:10200000A1BB8DF82F000AE5864697E68DF82F00D4
:10201000AAE401F1010CD9E603460846C5E54FF0F4
:10202000FF330293FFF738BB049D98F8013055F851
:10203000042B0495A04642EAE279FFF776BA00BF86
:102040008402000010B4044C13460A46014620687E
:1020500010BCFFF7FFB900BF08000020F0B50C4628
:10206000ADF26C4D8989666EE589199621F0020101
:10207000666AADF80E500025E769ADF80C100996B8
:1020800006951AAE4FF4806569460096049602954F
:10209000059507970646FFF7DDF9051E07DB304675
:1020A000694602F069FC002818BF4FF0FF35BDF803
:1020B0000C305B0603D5A38943F04003A381284677
:1020C0000DF26C4DF0BD00BF2DE9F04FBFB01C46C6
:1020D0000891914605460C9003F048F90368159362
:1020E000184604F02DFE0D9413901DB1AB6B002B20
:1020F00000F056830899B1F90C2093B29E0408466B
:1021000007D4496E42F4005321F4005183814166A3
:102110009BB21D0740F1D080089A1269002A00F096
:10212000CB8003F01A030A2B00F0D4800021002298
:102130000023CDE910121293CDE9223314931693A4
:1021400009932EAB21939A4699F80030002B00F0AA
:10215000DD80252B00F0B2864D4603E0252B00F0F4
:10216000C78025466B786C1C002BF7D1B4EB0906B1
:1021700000F0CC80DDE9223201333244072BCAF86B
:102180000090CAF80460CDE9223200F3B6800AF16B
:10219000080A099A6B7832440992002B00F0B68045
:1021A000002367788DF867301A4619460A939B46D4
:1021B00004F101094FF0FF3609F10109A7F12003ED
:1021C000582B00F2F182DFE813F0C902EF02EF02B0
:1021D000D102EF02EF02EF02EF02EF02EF02220262
:1021E000AB02EF02A602B002EF02C000B100B100E4
:1021F000B100B100B100B100B100B100B100EF0217
:10220000EF02EF02EF02EF02EF02EF02EF02EF0246
:10221000EF028C024F02EF024F02EF02EF02EF02D9
:10222000EF024502EF02EF026800EF02EF02EF0259
:10223000EF02EF025900EF02EF022D02EF02EF0270
:10224000EF02EF02EF02EF02EF02EF02EF02EF0206
:10225000A7016D014F024F024F0268016D01EF02AD
:10226000EF025B01EF0245016A0015011001EF0268
:10227000E600EF025B00EF02EF02C5004BF0100B2F
:102280001BF0200F00F081820D9C073424F007031F
:10229000F3E802450D930123BCE04BF0100B1BF05B
:1022A000200300F068820D9C073424F00703F3E854
:1022B00002450D930023ADE008990C9801F0BCF99C
:1022C000002841F00B81089B9B8903F01A030A2B1D
:1022D0007FF42CAF089BB3F90E30002BFFF626AF2E
:1022E00023464A4608990C9801F070F9099019E0C4
:1022F000B4EB09063FF454AF3CE721AA08990C98C7
:10230000FFF7A0F848B90DF1B80A42E7239B23B1C3
:102310000C98089921AAFFF795F8089B9B895A0603
:1023200001F1DC8009983FB0BDE8F08FA7F13003E0
:10233000002019F8017B00EB800003EB4000A7F1BF
:102340003003092BF5D90A9038E74BF0800B99F848
:10235000007031E7002A41F0A980C14B14931BF0B3
:10236000200F00F068810D9C073424F00703F3E888
:1023700002450D931BF0010F00F0278254EA05037C
:1023800000F0238230238DF868308DF869704BF0AF
:10239000020B02233EE00D9C54F8043B0E930025F3
:1023A0008DF86750002B00F07C86711C00F0508780
:1023B000324629460E9803F02BFB002801F0588086
:1023C0000E9BC31A0B932E4623EAE3739DF8678096
:1023D0000D94CDF818B007930F96B8F1000F00F0E8
:1023E000AD80079B01330793A8E04BF0200B99F8D1
:1023F0000070E1E60D9C54F8043B0D9447F6300262
:102400001C46974B1493ADF868204BF0020B002547
:10241000022378274FF000088DF86780721C00F0C7
:10242000D8812BF08002069254EA050240F0CF8159
:10243000002E40F00D84002B40F0D7841BF00103E8
:102440000B9300F0448530238DF8B7300DF1B703BE
:102450000E9359E0002A41F031800D9A1BF0200FB5
:1024600052F8043B0D9240F036851BF0100F40F0FF
:1024700051861BF0400F00F04D86099A1A8063E6E2
:1024800099F800706C2F03BF99F801704BF0200B86
:1024900009F101094BF0100B8EE64BF0400B99F857
:1024A000007089E6002A41F011801BF0200F00F037
:1024B00021810D9C073424F007031946F1E802231B
:1024C0000D9114461D46002A73F10003C0F2EC84FE
:1024D000731C9DF8678008D02BF08003069354EAA4
:1024E000050300F07F84DDF818B0002D08BF0A2C2A
:1024F00080F04F84012330340B930DF1B7038DF836
:10250000B740CDF818B00E930B9BB342B8BF33461B
:10251000079300230F9360E70D9C002354F8042BCE
:102520008DF890208DF86730012224AB07920D942E
:102530000B920E930026CDF818B00F96069B13F061
:10254000020302D0079A02320792069A239C12F0E5
:10255000840B05D10A9A0799551A002D00F3E882D9
:102560009DF8672072B1229A013201340DF16700A3
:102570000121072ACDE92224CAE9000100F31583CD
:102580000AF1080A6BB1229B013302341AA9022214
:10259000072BCDE92234CAE9001200F314830AF1B3
:1025A000080ABBF1800F00F09E810B9BF61A002EEB
:1025B00000F3E281069BDB0500F13881229B0E9A35
:1025C000CAF800200B9ACAF8042001331444072BE0
:1025D0002394229300F34E820AF1080A069B5907BE
:1025E00005D50A9B079A9D1A002D00F3F882DDE9B4
:1025F000093207998A42ACBF9B185B180993002CDB
:1026000040F0FE81002322930DF1B80A9CE50D9B5A
:1026100099F8007053F8040B0A900028C0F2138553
:102620000D93C9E5002A40F055870E4B14931BF01B
:10263000200F7FF498AE0D9B1BF0100F53F8044B46
:102640000D9340F026841BF0400F00F02284A4B2CA
:1026500000258FE64BF0080B99F80070ACE500BF41
:10266000700200005C020000002A40F023870D9CED
:10267000073424F00703F3E8021222F00044CDE906
:1026800010120D930D4608464FF0FF322146C14B04
:1026900005F0D8FA002840F02584284621464FF05E
:1026A000FF32BC4B05F0B0FA002840F01B8400223A
:1026B0000023DDE9100105F09DFA002840F03D8679
:1026C0009DF86780B44AB54B032100262BF08000AB
:1026D000472FC8BF1A46079106900E920B910F968E
:1026E0007BE6002A40F0EE864BF0100B1BF0200F2B
:1026F0007FF4DFAE0D9B1BF0100F53F8044B0D93CE
:1027000040F0CA831BF0400F00F0C68324B2E517E7
:1027100022462B46D7E699F800704BF0040B4BE5A8
:1027200099F8007001222B2146E5484610F8017BFC
:102730002A2F00F02C87A7F13003092B81464FF098
:1027400000063FF63BAD19F8017B06EB860603EB6E
:102750004606A7F13003092BF5D92FE599F800704B
:1027600000297FF429AD0122202125E54BF0010B42
:1027700099F8007020E50D9A52F8044B0D921BF069
:10278000100200F05884002544E60D9B1BF0100F4A
:1027900053F8044B0D9300F046840025012339E6DD
:1027A0000C9802F0EFF9A5E4002A40F0DF85002F35
:1027B0003FF4ACAD002301228DF8673024AB0792C3
:1027C0008DF890700B920E93B4E6022322E6DDF8AA
:1027D00018B0012B3FF489AE022B00F041822EA9E4
:1027E00000E01146E20842EA4572E80804F00703F7
:1027F00005461446303354EA050001F8013C01F166
:10280000FF32EED11BF0010F0E9200F0E482302B6C
:1028100000F052840E9ACDF818B03023023902F835
:10282000013C2EAB5B1A0B930E916DE6652F40F3C6
:102830002D8100220023DDE9100105F0D1F90028E7
:1028400000F02782229B564ACAF800200133013447
:102850000122072BCDE92234CAF8042000F3A48416
:102860000AF1080A1B9B129A239C934280F2298347
:10287000229B159ACAF80020139ACAF80420013343
:102880001444072BCDE9223400F3FE830AF1080A31
:10289000129B5D1E002D7FF7A1AE102D229ADFF84E
:1028A00004B140F3778410260C9FDDF8208005E00A
:1028B0000AF1080A103D102D40F36C8401321034E7
:1028C000072ACDE92224CAE900B6F1DD21AA414652
:1028D0003846FEF7B7FD00287FF41FADDDE922245E
:1028E0000DF1B80AE6E70A9B079A9D1A002D7FF7BB
:1028F0005CAE102D229ADFF8ACB02DDD5846534661
:102900002146CA46BB46B1464FF010080C9C089EB3
:10291000074604E0103D102D03F1080315DD0132D8
:102920001031072ACDE92221C3E90078F2DD21AA7E
:1029300031462046FEF786FD00287FF4EEAC103DC0
:10294000102DDDE922212EABE9DC4E46D1469A4618
:102950003B460C465F469B4601322C44072ACDE994
:102960002224CAE900B500F32B840B9BF61A002E33
:102970000AF1080A7FF71EAE102E229ADFF824B063
:1029800032DD59462346BB461025DDF83080089CD1
:102990000F460EE0FFFFEF7FAC020000B002000028
:1029A000BC0200009C020000103E102E0AF1080A32
:1029B00016DD01321033072ACDE92223CAE900755A
:1029C000F2DD21AA21464046FEF73CFD00287FF4B7
:1029D000A4AC103E102EDDE922230DF1B80AE8DC8C
:1029E0001C463B465F469B4601323444072ACDE9EC
:1029F0002224CAE900B600F33F820AF1080AD9E5A9
:102A000021AA08990C98FEF71DFD00283FF4FAADA5
:102A100083E421AA08990C98FEF714FD00287FF49E
:102A20007CAC1B9B239C0DF1B80A002B40F0D58396
:102A3000069B129A03F0010313433FF4CFAD229A91
:102A4000159BCAF80030139BCAF8043001321C44AD
:102A5000072A2394229200F39D840AF1080A129B0C
:102A60000E9901321C44072ACDE92224CAE9001339
:102A70007FF7B2AD21AA08990C98FEF7E3FC002875
:102A80007FF44BAC239C0DF1B80AA7E5129A229B68
:102A9000012A04F1010403F101050AF1080640F3DB
:102AA000AA8101230E9ACAF80020072DCDE92254ED
:102AB000CAF8043000F34283139B159A01351C4475
:102AC000072DCDE92254C6E9002300F32B830836F5
:102AD0006B1C1F46B846129F0B9300220023DDE9B2
:102AE000100106F1080A013F05F07AF8002840F0CD
:102AF00096810E9B776001333C44B8F1070F336039
:102B00002394CDF8888000F3AF8206F1100305F11D
:102B1000020856469A46169A726014441DABB8F1E4
:102B2000070F2394CDF8888033607FF757ADA1E776
:102B3000102D229A2CDD51462046CA464FF010082F
:102B4000B14617932E460C9C089D04E0103E102EB3
:102B500001F1080116DD0132C54B1030072ACDE91D
:102B60002220C1E90038F1DD21AA29462046FEF7DE
:102B700069FC00287FF4D1AB103E102EDDE9222045
:102B80002EA9E8DC179B354604464E46D1468A46B8
:102B90000132B7492C44072ACDE92224CAE900159D
:102BA00000F3D8820AF1080ADAE421AA08990C98FD
:102BB0001793FEF747FC00287FF4AFAB239C179BCD
:102BC0000DF1B80ADEE421AA08990C98FEF73AFC48
:102BD00000287FF4A2AB239C0DF1B80AE1E4102D8C
:102BE000229B21DD10260C9FDDF8208004E0103DA3
:102BF000102D0AF1080A17DD01339D4A1034072B06
:102C0000CDE92234CAE90026F1DD21AA4146384641
:102C1000FEF718FC00287FF480AB103D102DDDE995
:102C200022340DF1B80AE7DC0133914A2C44072B1A
:102C3000CDE92234CAE900257FF7D9AC21AA089949
:102C40000C98FEF7FFFB00287FF467AB239CCEE4D3
:102C5000012B00F0B983022BDDF818B07FF4BFAD73
:102C6000DDF850C02EAA230904F00F0043EA0573D3
:102C700029091C460D461CF8003002F8013D54EAB3
:102C80000503F0D12EAB9B1A0E92CDF818B00B9322
:102C90003AE41B9B002B40F36C82129B0F9A9342E9
:102CA000A8BF1346002B1D460EDD229B0E9ACAF8C4
:102CB000002001332C44072B2394CAF8045022939C
:102CC00000F3B9830AF1080A0F9B002DA8BF5B1B14
:102CD000002B1D4600F3F8811B9A129B9A4280F24A
:102CE000B781229B1599CAF800101399CAF80410ED
:102CF00001330C44072B2394229300F32A830AF117
:102D0000080A0F99129B9142A3EB020380F20682FC
:102D10001D46002D10DD229ACAF80450DDE90E1080
:102D2000013201442C44072ACAF80010CDE92224BC
:102D300000F38F830AF1080A002DACBF5D1B1D460E
:102D4000002D7FF74BAC102D229ADFF828B140F30D
:102D5000218210260C9FDDF8208005E00AF1080A88
:102D6000103D102D40F3168201321034072ACDE9B0
:102D70002224CAE900B6F1DD21AA41463846FEF711
:102D800061FB00287FF4C9AADDE922240DF1B80A0D
:102D9000E6E72EABCDF81890C146B0461E4601E0DE
:102DA00004460D460A2200232046294604F088FFE7
:102DB000303206F8012D00230A222046294604F06D
:102DC0007FFF002D08BF0A2CEAD232460E964646F7
:102DD000C846DDF81890CDF818B02EAB9B1A0B93AF
:102DE000FFF792BB002E40F0EF8200262EAB0B9631
:102DF0000E93FFF789BB069AD0073FF552AE01222A
:102E00000E99CAF80010072DCDE92254CAF8042003
:102E100000F32A8103F102080AF1100A7BE6002F71
:102E20007FF779AE102FDFF84CB040F3AE83234626
:102E30004FF01008DDF830A0089C0B9D05E0083627
:102E4000103F102F40F30C8201351033072DCDE9D0
:102E50002253C6E900B8F2DD21AA21465046FEF70A
:102E6000F1FA00287FF459AADDE922532EAEE7E7F4
:102E70008C0200009C02000021AA08990C98FEF721
:102E8000E1FA00287FF449AA239C0DF1B80AFFF764
:102E900091BB0025FFF76EBAE51722462B46002AA4
:102EA00073F10003BFF614AB4FF02D08644265EBDD
:102EB00045058DF867800123FFF7B0BA4C46FFF750
:102EC0006FB9069BDE073FF5D3ACFFF787BB2EAB90
:102ED0000E93FFF719BB099A1046D117C3E90001F9
:102EE000FFF732B9DDE9100102460B4604F0AAFEF5
:102EF000002840F0308327F02003741C079300F073
:102F0000A682472B00F04282DDE910124BF4807359
:102F1000151E0693C0F217820023DDF84080179338
:102F2000662F00F0BB81462F00F0B881079B452B30
:102F300042462B4600F04C821FA81CA90490039126
:102F40001BA802210290019600910C9800F0FAFC57
:102F5000672F0E90344640F049821BF0010F40F07D
:102F600048821B9A1F9B0F920E9A9B1A1293079BE3
:102F7000472B06D10F9BD81C02DB9E4280F24D826C
:102F8000023F0F9B8DF874705A1E002A1B92B6BF29
:102F9000C3F101022B232D23092A8DF8753040F34C
:102FA000BA820DF183042046B84D01E008461A4666
:102FB00085FB0231D317C3EBA10303EB8301A2EB23
:102FC00041013031632A00F8011C00F1FF31EDDCD2
:102FD0003033821EDBB2944201F8013C40F2E282BF
:102FE0000DF1760201E011F8013B02F8013B8C4241
:102FF000F9D10DF185030DF176021B1A13441DAAB8
:103000009B1A1693129A169B012A13440B9340F3B2
:1030100094820B9B139A13440B9323EAE373079355
:1030200000230F9375E11BF0400F18BFA4B20025D9
:103030000123FFF7EFB91BF040031CBF1346A4B2F6
:103040000025FFF7E7B940420A900D93FFF765BBF3
:10305000069BDD073FF545AE0F99129B8A42A3EB15
:1030600002035BDD1D4667E621AA08990C98FEF76E
:10307000E9F900287FF451A9DDE922340DF1C00AF5
:1030800003F101082EAE46E521AA08990C98FEF737
:10309000D9F900287FF441A9239C0DF1B80AFFF764
:1030A000F7BB062E334628BF06230B930793784BB6
:1030B0000D940E93FFF73EBA0E9ACDF818B02EABD2
:1030C0009B1A0B93FFF720BA102B229ADFF8C8B196
:1030D00040F3288110260C9FDDF8208005E00AF1DE
:1030E000080A103D102D40F31D8101321034072ACB
:1030F000CDE92224CAE900B6F1DD21AA41463846CD
:10310000FEF7A0F900287FF408A9DDE922240DF1DB
:10311000B80AE6E7099A1A60FFF716B8129A0F99EB
:10312000551AF6E521AA08990C98FEF78BF90028A4
:103130007FF4F3A8DDE922542EAEC9E421AA089950
:103140000C98FEF77FF900287FF4E7A8DDE9225408
:103150002EAEB1E421AA08990C981793FEF772F9E4
:1031600000287FF4DAA8239C179B0DF1B80AFFF71B
:10317000F7B9229A4749CAF80010013201340121F7
:10318000072ACDE92224CAF804103FF742AC0AF11D
:10319000080A4AE401322C44072ACDE92224CAE96C
:1031A00000B57FF719AA65E421AA08990C98FEF7E3
:1031B00049F900287FF4B1A80DF1B80AFFF752BB16
:1031C00021AA08990C98FEF73DF900287FF4A5A8DC
:1031D000239C0DF1B80AFFF7E8B9229A1599CAF8AD
:1031E00000101399CAF8041001320C44072A2394E2
:1031F000229200F3CF800AF1080A002BBFF62FAC11
:103200005D421033DFF890B080F26E815F46102689
:10321000DDF82080DDF830B005E00AF1080A103D45
:10322000102D40F3608101321034072ACDE92224A9
:10323000CAE90076F1DD21AA41465846FEF702F9B7
:1032400000287FF46AA8DDE922240DF1B80AE6E738
:103250000E9803F075FD2E4603460B90FFF7B4B8A9
:103260001C4605F1010806F108023C44B8F1070FBD
:103270002394C6E900B7CDF888803FF7F5AE08F192
:10328000010802F1080A164645E400BF6766666653
:1032900084020000BC0200009C0200001FA81CA9C0
:1032A000049003911BA803212B46029042460196ED
:1032B00000910C9800F046FB0E900E9B1B78302B73
:1032C00000EB060456D01B9B1C44404629460022B6
:1032D000002304F085FC002800F08E8023460E9A1F
:1032E0009B1A12931B9B0F93079B472B3FF442AEF5
:1032F000662F7FF446AE0F9A0BF00103002A43EAD3
:10330000060340F33581002B40F020810F9B07938B
:103310000B93179B002B7BD02D238DF86730002655
:10332000FFF75FB801322C44072ACDE92224CAE90D
:1033300000B53DDC0AF1080ACEE44FF02D088DF807
:103340006780FFF7BFB92D23884602F10045179328
:10335000E6E521AA08990C98FEF774F800287EF497
:10336000DCAF1B9A239C0DF1B80ACAE48DF86710F4
:10337000FFF71DBA404629460022002304F030FC26
:103380000028A0D1C6F101031B939DE7002E08BFC2
:103390000126B9E521AA08990C98FEF753F80028F0
:1033A0007EF4BBAF1B9BDDE922240DF1B80A24E7B4
:1033B00021AA08990C98FEF745F800287EF4ADAFD5
:1033C000239C0DF1B80A87E4DDF818B0FFF792B836
:1033D0001FA81CA9049003911BA80221741C029031
:1033E000019400910C9800F0ADFA0E90472F3FF435
:1033F000B4AD0E9B1C4468E71F9BA342BFF46FAFA4
:1034000030215A1C1F9219701F9B9C42F9D866E705
:103410009DF86780179EFEF7E0BF129B19460F9B31
:10342000994230DC1BF0010F7ED123EAE372079250
:103430000B9367276DE721AA08990C98FEF702F80D
:1034400000287EF46AAF239C0DF1B80A3CE40626FE
:103450005AE521AA08990C98FDF7F4FF00287EF49C
:103460005CAF1B9B129A239CD31A0DF1B80A63E43C
:1034700007960B960D940646CDF818B00F909DF860
:103480006780FEF7AABFDDE9123213440F9A0B934F
:10349000002A06DC0F9B0B9AC3F101031A44134662
:1034A0000B9223EAE3730793672732E78DF86710DF
:1034B000FEF753BF8DF86710FFF7D9B88DF8671086
:1034C000FEF7CBBF8DF86710FFF70EB98DF86710C8
:1034D000FEF7EBBF8DF86710FFF7A7B84FF0FF338B
:1034E0000993FEF71FBFBB4601322C44072ACDE9E2
:1034F0002224CAE900B57FF7B0AA21AA08990C983E
:10350000FDF7A0FF00287EF408AFDDE922240DF1CD
:10351000B80AFFF7A4BA302330328DF8763004238E
:103520008DF8772016936DE50F9B139A13440B9338
:1035300023EAE37307936727EBE61BF001020F9280
:103540007FF467AD23EAE3730793E2E6139BD31896
:1035500033440B93F6E7119B144A002BB6BF4FF090
:103560002D089DF867808DF86780114BFFF7ACB888
:103570001BB9012307930B93CBE6139B0133334411
:103580000B9323EAE3730793C3E652466DE60D9B64
:1035900099F8017053F8046B0D93814646EAE6767C
:1035A000FEF70ABE022316932CE500BFB40200000A
:1035B000B802000010B4044C13460A4601462068C5
:1035C00010BCFEF781BD00BF08000020F0B50C461E
:1035D000ADF26C4D8989666EE589199621F002017C
:1035E000666AADF80E500025E769ADF80C10099633
:1035F00006951AAE4FF480656946009604960295CA
:10360000059507970646FEF75FFD051E07DB30466A
:10361000694601F0B1F9002818BF4FF0FF35BDF839
:103620000C305B0603D5A38943F04003A3812846F1
:103630000DF26C4DF0BD00BF38B5324B1B6805462E
:103640000C460BB19A6B12B3B4F90C2093B2180765
:1036500025D5206900282DD013F0010207D0636919
:1036600000225B42A361A26038B1002038BD9907F7
:1036700058BF6269A2600028F7D1B4F90C301A066D
:10368000F4D543F04003A3814FF0FF3038BD184616
:1036900001F078FAB4F90C2093B21807D9D4D906FE
:1036A00028D5580712D4206942F00803A3819BB2A1
:1036B0000028D1D103F42072B2F5007FCCD0284687
:1036C000214601F089FEA3892069C5E7216B51B12C
:1036D00004F14003994204D0284601F049FBB4F9B3
:1036E0000C200023236300232069636022F024025E
:1036F0002060D9E742F0400209232B604FF0FF30F1
:10370000A28138BD08000020F0B4184C2568D5F817
:10371000484114B365681F2D24DC38B9AB1C013552
:10372000656044F823100020F0BC704704EB850668
:103730000127C6F8882007FA05F2D4F88871022814
:1037400047EA0207C4F88871C6F80831E6D1D4F810
:103750008C311A43C4F88C21E0E705F5A674C5F84E
:103760004841D7E74FF0FF30DEE700BF38020000E6
:103770002DE9F04F244B83B0D3F800B001908A4676
:103780004FF00008DBF8486196B17468651E0FD4ED
:10379000013406EB84040127BAF1000F0BD0D4F8F2
:1037A0000031534507D0013D6B1CA4F10404F3D153
:1037B00003B0BDE8F08F73682268013BAB420CBFD9
:1037C0007560C4F80080002AEDD0D6F88811D6F8CC
:1037D000049007FA05FC1CEA010F08D190477268B3
:1037E0004A45CFD1DBF84831B342DCD0CAE7D6F83E
:1037F0008C31D4F880101CEA030F02D10198904755
:10380000EDE708469047EAE738020000024B13B1A3
:103810000248FDF7EFBC70470000000021120000D5
:103820002DE9F04F03690F69BB4283B0C0F2868077
:10383000013F01F1140600F1140A56F827305AF836
:103840002720BC000133009406EB04099A4254443B
:10385000B2FBF3F801943AD300252A46B646D44683
:103860005EF8044BDCF800301FFA84FB08FB0B55B4
:103870004FEA154B240C08FB04B4ADB2551BA2B2A1
:10388000C2EB134215FA83F302EB23429BB243EAE5
:103890000243F1454FEA14454CF8043B4FEA2242FB
:1038A000DED2009B5AF803308BB9019A131F9A4558
:1038B0000CD252F8043C4BB9A2F1080302E01A689A
:1038C000043B1AB99A4507F1FF37F8D3076104465C
:1038D00002F08AFC00282DDB08F101085046002385
:1038E00056F8041B05688AB29A1A0B0C12FA85F274
:1038F000C3EB154303EB224392B242EA0342B145C4
:1039000040F8042B4FEA2343EAD25AF827200AEB67
:1039100087037AB91A1F92450BD253F8042C42B987
:10392000083B02E01A68043B1AB99A4507F1FF37D1
:10393000F8D32761404603B0BDE8F08F002003B004
:10394000BDE8F08F2DE9F04F016C97B016461F4689
:103950000446239DCDE9026741B1426C4A600123D0
:1039600093408B6002F0D0F9002323643E1EB4BF65
:10397000012300232B60764BBCBF26F00046039644
:10398000B34300F0AF80DDE90223CDE90823104600
:1039900019460022002304F023F9074678B1229A41
:1039A00001231360249B002B00F03B83694B249A76
:1039B0001360013B0493049817B0BDE8F08FDDE974
:1039C000088914AA15ABCDE90032204642464B4681
:1039D00002F036FD350D834640F09A80DDE914850E
:1039E000454405F23243202B40F3EB83C3F14003FF
:1039F0009E40029B05F2124023FA00F0304303F090
:103A00000DFEA1F1F87301210246013D0D91104612
:103A100019460022504B03F0C3FC47A3D3E900230F
:103A200003F076FE46A3D3E9002303F0BBFC064671
:103A300028460F4603F002FE43A3D3E9002303F018
:103A400067FE02460B463046394603F0ABFC06469D
:103A50000F4604F00DF90022824600233046394615
:103A600004F0C8F8002840F0CF82A8EB05056B1ED3
:103A7000BAF1160F059300F2BC82384B03EBCA0370
:103A8000D3E90023DDE9080104F0B4F800286BD085
:103A900000230C93059B002B0AF1FF3AC0F2AF8282
:103AA0004FF00009BAF1000F64DACAF100030B937A
:103AB000209BCDF818A0092BA9EB0A094FF0000AAA
:103AC00061D8052B40F37B83043B20930025209B8A
:103AD000023B032B00F27D86DFE813F0A2049F0473
:103AE00078049204229A42F20F731360029BC6F389
:103AF0001306334319D1249B002B00F07986184B11
:103B000004930833249A0498136017B0BDE8F08F2B
:103B1000C9F3130141F07F534246A5F2FF350D97DB
:103B200043F44013DDF8508071E7249B002B40F0F4
:103B30003B840C4B04933EE761436F63A787D23FFE
:103B4000B3C8608B288AC63FFB799F501344D33F8C
:103B50000000F07FBD0200000000F83F38030000C5
:103B6000C4020000C0020000059B0C90002BC0F2B4
:103B700046828146059B5344CDE9053A00230B93C9
:103B8000209B092B9DD900230125209321934FF0E1
:103B9000FF330A9507930021079B61641093204629
:103BA00002F08CF80490002800F01B86049B23642C
:103BB000079B0E2B00F23081002D00F02D8106991D
:103BC000002940F37484A84B01F00F020D1103EBA0
:103BD000C203EA06D3E9006740F13A84A34BDDE96A
:103BE0000801D3E9082303F0BDFECDE90E0103234C
:103BF00005F00F050293A5B11194DFF87082029CC5
:103C0000EB0708D530463946D8E9002303F080FD9C
:103C1000013406460F466D1008F10808F0D10294F1
:103C2000119C3B463246DDE90E0103F09BFE074640
:103C300088460C9B43B100228D4B3846414603F029
:103C4000D9FF002840F03885029803F0F7FC3A4687
:103C5000434603F05DFD874B002203F0A3FBA1F177
:103C60005073CDE902010393079B002B00F0B48051
:103C7000069B1193079B0E934146384603F0F8FFCD
:103C8000054603F0DBFC02460B463846414603F08E
:103C900087FB0E9A744B06460F460A9804993035F6
:103CA00003EBC2035FFA85F853E902234D1C002899
:103CB00000F070840020704903F054FEDDE9022317
:103CC00003F06EFB049B324683F800803B46CDE94F
:103CD000020103F0ADFF002840F0AD8432463B46C0
:103CE0000020634903F05CFB02460B46DDE902015C
:103CF00003F09EFF002840F058850E9B012B00F03A
:103D00008780049ACDF838B01344CDE9129AA046C2
:103D1000DDE902AB99460FE032463B4600205449AC
:103D200003F03EFB52465B4603F064FF002840F080
:103D300009854D4500F01C855046594600224F4BE1
:103D400003F0E6FC00224D4B82468B463046394656
:103D500003F0DEFC0F46064603F08AFF044603F03C
:103D60006DFC02460B463046394603F019FB3034F1
:103D7000E4B205F8014B52465B4606460F4603F097
:103D800039FF0028C8D0119BDDF838B00133444614
:103D900006935946204601F0B7FF00232B70229B63
:103DA0001A46069B1360249B002B3FF404AE049834
:103DB0001D6017B0BDE8F08F029803F03FFC3A4653
:103DC000434603F0A5FC2B4B002203F0EBFAA1F1D4
:103DD0005073CDE902010393384641460022284B37
:103DE00003F0DEFADDE902783A46434605460E4620
:103DF00003F01EFF0746002840F0B683DDE902010C
:103E0000024601F100432846314603F0F3FE30BB81
:103E1000DDE90823CDE90223159B002BC0F2C78002
:103E2000069A0E2A00F3C3800F4B03EBC203D3E9BB
:103E3000009A219B002B25DA079F002F22DC40F0FF
:103E4000718400220E4B4846514603F061FCDDE9C7
:103E5000022303F0E3FE002800F08783079F3E461D
:103E6000219B049DDB4373E238030000280400001B
:103E70000000F03F00001C400000E03F0000244034
:103E800000001440DDE902674A4653463046394691
:103E900003F068FD03F0ECFE804603F0CFFB4A46DA
:103EA000534603F035FC049D0246304646460B4619
:103EB0003036394603F074FA069F05F8016B079E09
:103EC0000137012E02460B46069744D00022CA4B0A
:103ED00003F01EFC0022002306460F4603F080FE7E
:103EE00000287FF456AFCDF808B04FF00108DDF898
:103EF0001CB005940CE00022BF4B03F009FC00222B
:103F0000002306460F4603F06BFE002840F0248392
:103F10004A4653463046394603F024FD03F0A8FED6
:103F2000044603F08BFB4A46534603F0F1FB02467E
:103F30000B463046394603F033FA08F1010804F124
:103F40003006C34502460B4605F8016BD3D1A046A7
:103F5000DDF808B0059C1046194603F023FA4A46DE
:103F6000534606460F4603F063FE60B94A46534681
:103F70003046394603F034FE00283FF40AAF5FEACA
:103F8000C8717FF506AF15F8018C049A6B1E04E02A
:103F90009A4200F0B88313F8018DB8F1390F03F19C
:103FA0000105F5D008F10102D2B21A70F1E60A9AC1
:103FB000002A3CD0209A012A40F36C82079B5F1EA6
:103FC0000B9BBB4280F242820B9B0B97FB1A9A44DD
:103FD0000027079B002BC0F2C382059A11461944A3
:103FE0004D46059199440121204601F08FFF064678
:103FF00020E001230C93059B002BBFF651AD00235D
:10400000C5F1010905934DE5504603F017FB324613
:104010003B4603F0E5FD00287FF427AD0AF1FF3AA7
:1040200023E5764B0493049817B0BDE8F08F0B9FFF
:104030000A9E4D46002D0BDD059A002A08DDAA4296
:104040001346A8BF2B46A9EB0309ED1AD31A059313
:104050000B9BD3B10A9B002B00F09F81002F10DD3A
:1040600031463A46204602F00DF85A4601460646C9
:10407000204601F061FF59468046204601F044FE8B
:10408000C3460B9BDA1B40F089810121204601F0D9
:104090003DFFBAF1000F074600F39980209B012BEA
:1040A00040F38781002308930120BAF1000F40F00C
:1040B0009A80059A104410F01F0079D0C0F12003B7
:1040C000042B40F37783C0F11C0002448144054473
:1040D0000592B9F1000F05DD59464A46204602F027
:1040E0001DF88346059B002B05DD39461A46204600
:1040F00002F014F807460C9B002B40F03381079B1D
:10410000002B40F30A810A9B002B40F08680069B1F
:1041100001330693049DDDF81C904FF0010808E080
:10412000594600230A22204601F0F8FD08F1010853
:10413000834639465846FFF773FBC14500F130000E
:1041400005F8010BECDC03464FF0000A594601224A
:104150002046029301F0E2FF3946834602F044F81C
:10416000002815F8012C40F380816B1E049904E0AF
:10417000994200F0888113F8012D392A03F10105D5
:10418000F6D001321A703946204601F0BDFD002EEE
:104190003FF4FFADBAF1000F05D0B24503D0514650
:1041A000204601F0B1FD3146204601F0ADFDF0E5BD
:1041B0001C20059B034481440544059389E70125A0
:1041C00085E4C3F12006029B03FA06F017E40146DA
:1041D0005246204601F056FF209B012B074640F334
:1041E0006E81002308933B6907EB8303186901F094
:1041F0003DFEC0F120005CE700002440BC0200004E
:10420000314600230A22204601F088FD109B002B36
:10421000064640F3BE82CDE90683002D05DD31461A
:104220002A46204601F07AFF0646089B002B40F004
:104230007C81B146029B2098049903F001020B9205
:1042400002430A92079A4B1E1A440892884639463E
:104250005846FFF7E5FA31460290584601F0C4FF90
:104260004A4682463946204601F0DAFF029BC26880
:1042700005463033002A42D101465846079301F0E3
:10428000B3FF29460590204601F03EFD059A079BA5
:104290001AB90A99002900F05E82BAF1000F08F1FC
:1042A0000105C0F22481209941EA0A0A0B9951EADA
:1042B0000A0100F01C81002A00F35981089A88F84D
:1042C0000030424500F06081594600230A22204612
:1042D00001F024FD4E45834631464FF000034FF078
:1042E0000A02204613D001F019FD49460646002374
:1042F0000A22204601F012FDA8468146A7E70146A2
:104300002046059301F000FD0122059BC5E701F061
:1043100005FDA8460646814699E7209B022B40F3FF
:104320008280079B002B7FF49BAD394605222046F7
:1043300001F0F4FC01460746584601F055FF0028FD
:104340007FF78EAD049D069B312205F8012B0133CA
:10435000013339462046069301F0D6FC002E7FF447
:1043600022AF16E53946584601F03EFF0028BFF659
:10437000C6AE594600230A22204601F0CFFC069B18
:1043800003F1FF380A9B8346002B7FF439AF109B63
:10439000002B40F3F4810793BCE60B9A5946204664
:1043A00001F070FE834670E6A74B04930333FFF7DA
:1043B000A9BBDDE9021200297FF474AEC2F3130336
:1043C000002B00F08780029B08936DE601230A937F
:1043D000219B002B44DD109307931E460021172ECE
:1043E00061647FF7DCAB012204235B0003F114005E
:1043F000B042114602F10102F7D96164FFF7CFBB69
:1044000001230A93219B069A134410930133012B35
:104410001E460793B8BF0126E0E700230A93F1E7A1
:1044200000230A93D4E70A9B002B7FF4F6AE3946AB
:104430005846FFF7F5F9069A049D00F13003013262
:10444000069205F8013B4FF0000A7FE6DF1BC0E54E
:10445000DDE90223CDE90E2302230293FFF7CBBB54
:10446000012321930793FFF796BB03D1029BDB0740
:104470003FF57BAE6B1E01E013F8012D302A03F1EE
:104480000105F9D07FE6069A01320692049A31239B
:10449000137078E60D9A002A00F0D28003F23343BD
:1044A000059A0B9F1A444D46059299449BE540F0AE
:1044B000D3800223DDE902780293FFF7BABB029BA7
:1044C000002B7FF48EAEDDE90212C2F31303002B42
:1044D00040F075815D4B1340002B00F02181059B5E
:1044E00001330593012309F101090893DCE50699DD
:1044F000002A01F10101069112DD594601222046F0
:10450000059301F00BFE3946834601F06DFE00284D
:10451000059B40F31181392B00F0FC80029B313365
:10452000B24688F800304E462DE67168204601F00C
:10453000C5FB0546002800F04581336902339A0027
:1045400006F10C010C3001F0B3FA29460122204695
:1045500001F0E4FD81466DE6DDF808B0059C18E445
:10456000079BA9EB03053EE500273E46EAE6069ACF
:10457000392B02F10102069200F0CC800133B246E1
:1045800088F800304E46FEE5069A0132B2460692A1
:104590004E46DBE5DDE9020103F0BAF8049B83F83F
:1045A00000800E9B012BCDE9020122D00E9B049AC4
:1045B000CDF83890134499460022254B30463946B1
:1045C00003F0A6F80F46064603F052FB804603F0C0
:1045D00035F808F1300802460B463046394602F0FD
:1045E000DFFE05F8018B4D4506460F46E4D1DDF8A8
:1045F0003890184B0022DDE9020102F0D3FE32466A
:104600003B4603F0F7FA002840F09080DDE90223F2
:104610000020104902F0C4FE32463B4603F008FB7E
:1046200000283FF4F5AB00E0154615F8013C302BAF
:1046300005F1FF32F8D0119B01330693FFF7A9BBB8
:10464000149BC3F136032BE7C00200000000F07F8B
:10465000000024400000E03F069B5D426C4B05F0EB
:104660000F0203EBC203D3E90023DDE9080103F0E5
:104670004FF82D110746884600F093800222654EC0
:10468000CDE90E780023A0461446EF0705D5D6E9FC
:10469000002303F03DF8013401236D1006F10806F4
:1046A000F3D102944446DDE90E78002B3FF4C1AA11
:1046B00007468846FFF7BDBA079B002B3FF47CAB4B
:1046C000109D002D7FF7A4AB0022534B3846414686
:1046D00003F01EF8074602988846013002F0AEFF4C
:1046E0003A46434603F014F84C4B002202F05AFEBF
:1046F000A1F15073CDE902010393069B0E95013B96
:104700001193FFF7B9BA069A0132069231221A7054
:10471000FFF73FBB3922B24688F800204E4624E519
:104720000893C1E400273E46FFF79ABB119B013373
:10473000069315F8018C28E47FF4F2AEDA077FF5D2
:10474000EFAEE8E64346A0461C46119BDDF838B0C4
:104750000133069319E4069A392B02F101020692FD
:1047600008F10105D6D0BAF1000F3FF7D7AED7E672
:10477000DDE9129ADDF838B04446FFF749BB209BCB
:10478000022B02DCCDF8188051E6109BCDE90683A0
:10479000C7E5209B022BF8DC109BCDF8188007930F
:1047A0003BE502230293FFF744BA119B01330693C2
:1047B000FFF7EBBB3FF48DACC0F13C00F9E4029B8A
:1047C000089310E50246164B164840F2EA2102F023
:1047D000F1FB002565642946204601F06FFA04903C
:1047E00050B90F4B0F4800224FF4D57102F0E2FB95
:1047F0000D4B0493FFF7DFB84FF0FF330793049A94
:1048000010930123226421950A93FFF705BB00BF93
:1048100038030000280400000000244000001C4071
:10482000D0020000E4020000C4020000B1F90C3024
:104830009AB22DE9F0410C461107804648D46268CF
:1048400043F40063002AA3815DDDA56A002D57D0E3
:1048500000229BB2D8F80060E169C8F8002013F488
:10486000805254D101234046A847431C66D0A389F7
:10487000A56AE1695F0705D56268236B801A0BB1F1
:10488000E36BC01A024600234046A847451C48D1A6
:10489000D8F80020B4F90C30002A5CD01D2A01D0D1
:1048A000162A64D122690021C4E9002123F400639F
:1048B000A381216BC8F8006011B304F14003994251
:1048C00002D0404600F054FA00202063BDE8F08199
:1048D0002669AEB12568266091070CBF6369002385
:1048E000AD1BA3600AE02B463246676AE169404689
:1048F000B8470028A5EB000506440ADD002DF2DCD0
:104900000020BDE8F081E26B002A9EDCF8E7206D14
:10491000B0E7A38943F04003A3814FF0FF30BDE827
:10492000F081B4F90C302269226023F40063002284
:104930006260DA04A381BCD52065BAE7D8F80030FC
:10494000002B94D01D2B0FD0162B0DD0A38943F034
:104950004003A381D5E723F400632169A381DB042D
:10496000C4E90012A5D5E7E7C8F80060C8E743F03E
:104970004003A381C5E700BF10B5044682B008B16B
:10498000836B23B1B1F90C0048B902B010BD01919D
:1049900000F0F8F80199B1F90C000028F5D0204694
:1049A00002B0BDE81040FFF741BF00BF20B1054B8A
:1049B00001461868FFF7E0BF034B0449186800F090
:1049C0007BBC00BF080000203802000079490000CD
:1049D00000207047014900F06FBC00BF81700000EB
:1049E0002DE9F84F45682C4BC3630024074600F5BA
:1049F0003B7204230321C0E9B912C0F8E04221460A
:104A0000EB6005F15C006C66C5E90044AC60C5E98B
:104A10000444AC610822FCF765FCDFF888B0BE688E
:104A2000DFF884A0DFF88490DFF884801B4BC5F8A2
:104A30002C80C5E9075BC5E909A92146F360082276
:104A400006F15C007466C6E90044B460C6E904443B
:104A5000B461FCF747FCFD68114BC6F82C80C6E931
:104A6000076BC6E909A92146EB606C66C5E90044FD
:104A7000AC60C5E90444AC6105F15C000822FCF7B8
:104A800031FC0123C5E9075BC5E909A9C5F82C80FC
:104A9000BB63BDE8F88F00BFD549000009000100E5
:104AA00012000200C5690000ED6900002D6A0000D7
:104AB0004D6A00000020704770B54A1E682505FB4E
:104AC00002F50E4605F1740100F0D0FC044640B139
:104AD00000210C30666005F168022160A060FCF7DF
:104AE00001FC204670BD00BF1F4B70B51D68AB6B4D
:104AF00006464BB305F53875D5E90134013B05D5BC
:104B00001EE0013B5A1C04F1680419D0B4F90C20D2
:104B1000002AF6D10025154B6566C4E90055A5604D
:104B2000C4E90455A5612946E360082204F15C004C
:104B3000FCF7D8FBC4E90C55C4E91155204670BDFB
:104B40002C682CB12546D7E72846FFF749FFD1E767
:104B500004213046FFF7B0FF044628600028F1D159
:104B60000C233360EAE700BF380200000100FFFFBA
:104B7000024B0349186800F09FBB00BF38020000D9
:104B800081700000836B03B1704729E7704700BF55
:104B9000704700BF704700BF704700BF024B03491A
:104BA000186800F063BB00BF08000020D149000076
:104BB000024B0349186800F059BB00BF08000020F1
:104BC000B54A00002DE9F04782B080468946144678
:104BD00000F0BCFB012803D109F1FF33FE2B36D9CD
:104BE0004A4604F15C0301A9404602F077F9421CF1
:104BF000064632D030B39DF804C000250DF1040AFA
:104C000009E023685A1C226083F800C00135B542D0
:104C100018D215F80AC0A368013B002BA360F0DA94
:104C2000A769BB4261462246404602DBBCF10A0F3F
:104C3000E7D102F0F3F8431CE8D10646304602B053
:104C4000BDE8F0874E46304602B0BDE8F0875FFA17
:104C500089FC06468DF804C0CFE7A389304643F0AF
:104C60004003A38102B0BDE8F08700BFB2F90C3069
:104C700013F4005F0AD110B4546E43F4005344F4AB
:104C800000545466938110BCFFF79CBFFFF79ABF96
:104C90000E4B70B51D6806460C460DB1AB6B8BB163
:104CA000B4F90C309A0406D4626E43F4005342F413
:104CB0000052A3816266224631462846BDE8704014
:104CC000FFF780BF2846FFF75DFFE9E708000020F7
:104CD000F8B5244F0C46064600F0ECFFBB685D6853
:104CE000C4F57E610F3125F00305294421F47F616D
:104CF00021F00F01A1F58054B4F5805F07DB00219E
:104D0000304601F04DFEBB682B44984204D030463B
:104D100000F0D2FF0020F8BD6142304601F040FEB5
:104D200001300DD0104BBA6819682D1B45F00105F4
:104D30003046091B5560196000F0BEFF0120F8BD28
:104D40000021304601F02CFEBA68831A0F2BDEDDFD
:104D5000064C0549246843F00103001B53600860BA
:104D6000D5E700BFA4050020D4090020AC0900202D
:104D700000295ED0F8B50F46064600F09BFF57F8B5
:104D800004CC754D2CF00103A7F10800C218A968E6
:104D90005468914224F0030400F084801CF0010F59
:104DA000546002EB040133D157F808EC4968A0EBDA
:104DB0000E0005F1080C87686745734401F0010196
:104DC00060D0D0F80CE0C7F80CE0CEF808700029ED
:104DD00000F08D8043F0010141601360B3F5007F66
:104DE00030D2DB08591C6C689A100123934023438E
:104DF00005EBC10255F831406B60083AC0E9024248
:104E000045F83100E0603046BDE8F84000F054BF9E
:104E10004968C9070ED4234405F1080C916861451F
:104E200043F001046BD0D268CA6091604460C35003
:104E3000D4E7704743F00101B3F5007F47F8041C45
:104E40001360CED35A0A042A46D89A0902F13907C8
:104E5000FF0002F13801EC19EA59083C944255D0A0
:104E6000516821F00301994202D992689442F7D126
:104E7000D468C0E90224A060D0603046BDE8F840A4
:104E800000F01ABF002962D1D2E90221234443F085
:104E90000104D1608A604460C3503046BDE8F840E8
:104EA00000F00ABF1CF0010F234407D157F8082C6B
:104EB000801A1344D0E90212CA609160274A12682E
:104EC00043F001019A424160A8609CD8244B3046CF
:104ED0001968FFF7FDFE96E7142A0AD9542A1DD84F
:104EE0001A0B02F16F07FF0002F16E01B3E72344D2
:104EF00094E702F15C07FF0002F15B01ABE7C5E953
:104F00000400C0E902CC4460C3507CE76B688910A0
:104F1000012707FA01F119436960AAE7B2F5AA7FF0
:104F200006D8DA0B02F17807FF0002F1770192E769
:104F300040F254518A4206D89A0C02F17D07FF00D4
:104F400002F17C0187E74FF47E777E2183E743F00F
:104F500001014160136056E7A4050020B00900205C
:104F6000D00900209368002B00F002812DE9F04F5A
:104F7000B1F90C309BB20C46190783B082469046BB
:104F800035D522699AB313F00202D8F800603DD0FB
:104F90000027D4F824B0D4F81CC0DFF8CC923D46EA
:104FA0004D452B463A4628BF4B4661465046D5B143
:104FB000D847002840F3D280D8F808301B1A07449D
:104FC0002D1AC8F80830002B00F0B780D4F81CC0A8
:104FD000D4F824B04D452B463A4628BF4B4661468F
:104FE0005046002DE4D1D6E900750836D8E72146B1
:104FF0005046FEF721FB002840F03081B4F90C3018
:10500000D8F800609BB213F00202C1D113F001097D
:1050100040F0B080A76820684D46002D54D09A0516
:1050200040F1BC80AF42BB4600F2E78013F4906FC2
:105030002FD0D4E9041707EB4707A0EB010B07EBD0
:10504000D777681C7F105844B8423A4684BF074659
:105050003A465B0540F1E9801146504600F006FAF9
:10506000002800F0F5805A462169019000F020FDEB
:10507000A289019B22F4906242F08002A281A7EBF8
:105080000B0203EB0B00676123612060A2602F46D7
:10509000AB465A46494600F0A5FDA2682368D21BDC
:1050A0005B442F46A26023600025D8F80830DB1B44
:1050B000B944C8F80830002B3FD0B4F90C30A768C9
:1050C00020689BB2002DAAD1D6E900950836A4E746
:1050D0000BF1080353E902679B460833002FF9D010
:1050E0003A460A21304600F093FC002853D00130A4
:1050F000A0EB06094B46D4E904122068BB4228BF46
:105100003B46884203D9A5681544AB4219DC9A4254
:105110007DDC1346656AE16932465046A847051EA4
:105120001CDDB9EB05096BD00120D8F808305B1BFA
:105130002E447F1BC8F8083013BB002003B0BDE825
:10514000F08F31462A4600F04DFD23682B44236042
:1051500021465046FFF710FC0028E2D0B4F90C308D
:1051600043F040034FF0FF30A38103B0BDE8F08F60
:105170000020704733469146104617464E469B46E0
:10518000002FA5D00028B5D13A460A21304600F0BC
:105190003FFC0028ABD17B1C9946ACE723698342D6
:1051A00015D36169A94212D82E4B676A9D4294BFFC
:1051B0002B466FF000434A4693FBF1F3504601FB48
:1051C00003F3E169B847071EC8DDED1B6DE7AF4289
:1051D00028BF2F463A46494600F004FDA3682268DE
:1051E000DB1B3A44A3602260002BEED121465046DF
:1051F000FFF7C2FB0028E8D0B0E72F46AB4648E7F0
:1052000021465046FFF7B8FB00288ED0A6E71A4685
:105210003146019300F0E6FC019BA1682268C91A9F
:105220001A44A16022601D467BE7504601F002FA55
:10523000034600287FF423AF21695046FFF798FD0D
:10524000B4F90C300C2223F08003CAF8002087E761
:105250000C23CAF80030B4F90C3081E74FF0FF306E
:105260006CE700BFFEFFFF7F00FCFF7F2DE9F041F0
:1052700010F538771BD088460026D7E90154013D48
:105280000FD4A389012B05F1FF3506D9B4F90E30EF
:105290000133204601D0C04706436B1C04F168046B
:1052A000EFD13F68002FE8D13046BDE8F0813E469F
:1052B0003046BDE8F08100BF2DE9F84310F538779E
:1052C0001FD0884606464FF00009D7E90154013D3A
:1052D00011D4A389012B05F1FF3508D9B4F90E309B
:1052E00001332146304602D0C04749EA00096B1C11
:1052F00004F16804EDD13F68002FE6D14846BDE8CF
:10530000F883B9464846BDE8F88300BF42B110B5FE
:105310000B491046144601F0A7FB18B9094810BD07
:10532000084870470749204601F09EFB0028F5D049
:105330002046054901F098FB0028EFD0002010BD61
:105340001C0300001803000090040000014B93F8B8
:105350002801704738040020024B0A4601461868AD
:10536000FFF7D4BF08000020F030704700487047B6
:1053700028050020004870472805002070B50C461D
:10538000B1F90E10002996B015461E4614DB6A4688
:1053900001F0E4FE00280FDB019A02F47042A2F54E
:1053A0000052B2FA82F252094FF480634FF4006067
:1053B00032602B6016B070BDA289002312F080000D
:1053C000336004D0402218462A6016B070BD4FF4F6
:1053D00080632B6016B070BD8A8992070B4606D594
:1053E00001F1430201211A60C3E90421704770B53D
:1053F00082B001AB6A460C460646FFF7BFFF009934
:105400000546304600F032F8B4F90C3070B1164958
:10541000F163019A0099206043F08003A381C4E9FD
:1054200004018AB92B43A38102B070BD9A05FBD455
:1054300023F0030304F1430243F002030121A3819B
:105440002260C4E90421EFE73046B4F90E1001F000
:1054500099FE10B9B4F90C30E4E7A38923F00303F3
:1054600043F001031BB2DDE7D54900002DE9F04F01
:1054700001F10B05162D83B0064623D8102900F242
:10548000B98000F017FC102518230220CD4F3B44B3
:10549000A3F108025C68944200F0B980636823F0CD
:1054A00003032344D4E902515A68E96042F001023F
:1054B00030468D605A6000F0FFFB0834204603B090
:1054C000BDE8F08F35F0070500F19480A94200F2A5
:1054D000918000F0EFFBB5F5FC7FC0F09D816B0A79
:1054E00000F08F80042B00F27381AB0903F13900C7
:1054F00003F1380CC300B34F3B44A3F108015C68CF
:10550000A14206D10CE0002A80F22B81E468A1427E
:1055100006D0636823F003035A1B0F2AF3DD6046AD
:105520003C69DFF8A4C264457CD0636823F00303C0
:105530005A1B0F2A00F37E81002AC7E904CC80F2AF
:105540006F81B3F5007F80F01A81DB08591C7A68FF
:1055500057F83180C4F808804FF0010E9B100EFA06
:1055600003F307EBC10E1343AEF10802E2607B6068
:1055700047F83140C8F80C408210012494409C4206
:1055800056D81C4206D120F0030064001C4200F1F2
:105590000400FAD007EBC009CE468046DEF80C3096
:1055A0009E4507D120E1002A80F22781DB689E45D5
:1055B00000F01A81596821F003014A1B0F2AF2DD1D
:1055C000D3E9028E5C1945F001055D6042F00105EA
:1055D000C8F80CE03046CEF80880C7E90444C4E9B6
:1055E00002CC65605A50009300F066FB009B03F10B
:1055F000080402E00C2333600024204603B0BDE819
:10560000F08F4FF4007340204FF03F0C73E7DC68DD
:10561000A34208BF02307FF441AF3C69DFF8A8C164
:10562000644582D17B688210012494409C42A8D9B1
:10563000BC68636823F00308A84503D3A8EB0503FF
:105640000F2B7EDCDFF88491D7F80824D9F80030DE
:10565000013204EB080A2B4400F0378103F5805334
:105660000F3323F47F6B2BF00F0B5946304601F0BC
:1056700097F9411C024600F0F780824500F2F28063
:10568000D9F804105944C9F804100B4600F05381AE
:10569000D7F8081401311BBFA2EB0A0A5344C7F81C
:1056A0000824C9F8043012F0070300F01A81C3F18E
:1056B00008010A44C3F5805193440831A1EB0B0162
:1056C000C1F30B0A514630460193009201F068F98C
:1056D000421CDDE9002300F05381831A03EB0A0B1F
:1056E000D9F80410BA604BF001035144BC42536036
:1056F000C9F8041000F02B81B8F10F0F40F2298196
:105700006368A8F10C0020F0070003F0010304EB2C
:10571000000C03434FF0050E0F286360CCE901EE47
:1057200000F2358153681446D9F82C208A42D9F802
:10573000302038BFC9F82C108A4238BFC9F8301061
:1057400094E0621943F0010345F0010565603046BD
:10575000BA60536000F0B0FA0834204603B0BDE8E8
:10576000F08F2344E1685A68A56842F00102E960BD
:1057700030468D605A6000F09FFA08343DE75A0ABF
:10578000042A69D9142A00F2BE8002F15C01C90022
:105790005B3207EB010E7958AEF1080E8E4500F032
:1057A00097804A6822F003029A4202D989688E459E
:1057B000F7D1D1F80CE07B68C4E9021ECEF80840AE
:1057C000CC60D9E6A4050020AC050020D00900205B
:1057D000142B59D9542B00F29E802B0B03F16F0030
:1057E00003F16E0CC30086E608F1010818F0030F00
:1057F0000EF1080E7FF4D2AE51E019441C464A68FF
:10580000DB6854F8085F42F001024A603046EB6002
:105810009D6000F051FAF0E6E80805F1080335E66E
:10582000234430465A6842F001025A60083400F0BE
:1058300043FAE2E6611945F0010E42F00105C4F8B1
:1058400004E03046C7E90411C1E902CC4D60E250E2
:1058500000F032FA0834D0E69A0902F13901C900A1
:10586000383296E7BC4260D0BC68636823F0030B13
:10587000AB45ABEB050302D30F2B3FF762AF3046CE
:1058800000F01AFA0024B8E603F15C0003F15B0CA7
:10589000C30030E659F808394B4540F0968010F0C7
:1058A000030F00F1FF30F5D17B6823EA04037B602E
:1058B00064009C423FF6BCAE1CB9B9E6640008F136
:1058C00004081C42FAD0404664E603F1100BCCE613
:1058D0007B6892104FF0010808FA02F213437B60D4
:1058E0006AE702EB0B014942C1F30B0A514630460D
:1058F0000193009201F054F8431CDDE900237FF48A
:10590000ECAE9A46ECE6542A26D81A0B02F16F0147
:10591000C9006E323DE7B3F5AA7F26D8EB0B03F141
:10592000780003F1770CC300E5E5D9F804305B4457
:10593000C9F80430ACE6CAF30B0000287FF4A8AE27
:1059400008EB0B03BC6843F001036360ECE614460C
:10595000EAE60123536092E7B2F5AA7F21D8DA0B79
:1059600002F17801C900773213E740F254529342B2
:1059700021D8AB0C03F17D0003F17C0CC300BAE528
:10598000083B9B44ABEB020B4FF0000AA8E604F186
:1059900008013046FFF7ECF9BC68D9F804106368D9
:1059A000C2E640F254518A420BD89A0C02F17D01B2
:1059B000C9007C32EDE64FF47E737F204FF07E0C01
:1059C00099E54FF47E717E22E3E67B6870E700BFC5
:1059D00010B4034CD4F8E440A44610BC604700BFA8
:1059E0003804002082B049B15AB16BB113780B6012
:1059F0001278101C18BF012002B0704701A9002ABC
:105A0000F3D1104602B070476FF00100F4E700BF19
:105A100001F0FF01102A2BDB10F0070F08D010F85F
:105A2000013B013A8B422DD010F0070F42B3F6D163
:105A3000F0B441EA012141EA014122F007047FF07C
:105A400000070023F0E80256083C85EA010586EAD3
:105A5000010685FA47F5A3FA87F586FA47F6A5FA0F
:105A600087F68EB9EED1F0BC01F0FF0102F007021B
:105A700032B110F8013B013A83EA010313B1F8D1C6
:105A80000020704701387047002D06BF35460338A7
:105A9000073815F0010F07D1013015F4807F02BFE0
:105AA000013015F4C03F0130F0BC0138704700BF31
:105AB000844641EA000313F003036DD1403A41D319
:105AC00051F8043B40F8043B51F8043B40F8043BD8
:105AD00051F8043B40F8043B51F8043B40F8043BC8
